{
  "_format": "hh-sol-artifact-1",
  "contractName": "OpButlerWallet",
  "sourceName": "contracts/OpButlerWallet.sol",
  "abi": [
    {
      "inputs": [],
      "stateMutability": "nonpayable",
      "type": "constructor"
    },
    {
      "inputs": [],
      "name": "InvalidInitialization",
      "type": "error"
    },
    {
      "inputs": [],
      "name": "NotInitializing",
      "type": "error"
    },
    {
      "anonymous": false,
      "inputs": [
        {
          "indexed": false,
          "internalType": "uint64",
          "name": "version",
          "type": "uint64"
        }
      ],
      "name": "Initialized",
      "type": "event"
    },
    {
      "anonymous": false,
      "inputs": [
        {
          "indexed": true,
          "internalType": "address",
          "name": "user",
          "type": "address"
        },
        {
          "indexed": false,
          "internalType": "address",
          "name": "asset",
          "type": "address"
        },
        {
          "indexed": false,
          "internalType": "uint256",
          "name": "amountIn",
          "type": "uint256"
        },
        {
          "indexed": false,
          "internalType": "uint256",
          "name": "borrowedAmount",
          "type": "uint256"
        }
      ],
      "name": "StrategyExecuted",
      "type": "event"
    },
    {
      "anonymous": false,
      "inputs": [
        {
          "indexed": true,
          "internalType": "address",
          "name": "user",
          "type": "address"
        },
        {
          "indexed": false,
          "internalType": "uint256",
          "name": "amountRepaid",
          "type": "uint256"
        }
      ],
      "name": "StrategyUnwound",
      "type": "event"
    },
    {
      "inputs": [],
      "name": "FEE_BPS",
      "outputs": [
        {
          "internalType": "uint256",
          "name": "",
          "type": "uint256"
        }
      ],
      "stateMutability": "view",
      "type": "function"
    },
    {
      "inputs": [],
      "name": "TREASURY",
      "outputs": [
        {
          "internalType": "address",
          "name": "",
          "type": "address"
        }
      ],
      "stateMutability": "view",
      "type": "function"
    },
    {
      "inputs": [
        {
          "internalType": "address",
          "name": "asset",
          "type": "address"
        },
        {
          "internalType": "address",
          "name": "vToken",
          "type": "address"
        },
        {
          "internalType": "address",
          "name": "borrowAsset",
          "type": "address"
        },
        {
          "internalType": "address",
          "name": "vBorrowToken",
          "type": "address"
        },
        {
          "internalType": "uint256",
          "name": "amount",
          "type": "uint256"
        },
        {
          "internalType": "uint256",
          "name": "borrowAmount",
          "type": "uint256"
        },
        {
          "internalType": "address",
          "name": "router",
          "type": "address"
        },
        {
          "internalType": "address",
          "name": "comptroller",
          "type": "address"
        }
      ],
      "name": "executeLoop",
      "outputs": [],
      "stateMutability": "nonpayable",
      "type": "function"
    },
    {
      "inputs": [
        {
          "internalType": "address",
          "name": "_owner",
          "type": "address"
        }
      ],
      "name": "initialize",
      "outputs": [],
      "stateMutability": "nonpayable",
      "type": "function"
    },
    {
      "inputs": [],
      "name": "owner",
      "outputs": [
        {
          "internalType": "address",
          "name": "",
          "type": "address"
        }
      ],
      "stateMutability": "view",
      "type": "function"
    },
    {
      "inputs": [
        {
          "internalType": "address",
          "name": "asset",
          "type": "address"
        },
        {
          "internalType": "address",
          "name": "vToken",
          "type": "address"
        },
        {
          "internalType": "address",
          "name": "borrowAsset",
          "type": "address"
        },
        {
          "internalType": "address",
          "name": "vBorrowToken",
          "type": "address"
        },
        {
          "internalType": "uint256",
          "name": "redeemAmount",
          "type": "uint256"
        },
        {
          "internalType": "address",
          "name": "router",
          "type": "address"
        }
      ],
      "name": "unwindLoop",
      "outputs": [],
      "stateMutability": "nonpayable",
      "type": "function"
    },
    {
      "inputs": [
        {
          "internalType": "address",
          "name": "oldVToken",
          "type": "address"
        },
        {
          "internalType": "address",
          "name": "oldVDebtToken",
          "type": "address"
        },
        {
          "internalType": "address",
          "name": "newVToken",
          "type": "address"
        },
        {
          "internalType": "address",
          "name": "newVDebtToken",
          "type": "address"
        },
        {
          "internalType": "uint256",
          "name": "amount",
          "type": "uint256"
        },
        {
          "internalType": "uint256",
          "name": "debtAmount",
          "type": "uint256"
        },
        {
          "internalType": "address",
          "name": "asset",
          "type": "address"
        },
        {
          "internalType": "address",
          "name": "debtAsset",
          "type": "address"
        },
        {
          "internalType": "uint256",
          "name": "flashLoanFeeBps",
          "type": "uint256"
        }
      ],
      "name": "executeRefinance",
      "outputs": [],
      "stateMutability": "nonpayable",
      "type": "function"
    }
  ],
  "bytecode": "0x60806040523480156200001157600080fd5b50620000226200002860201b60201c565b620001bb565b60006200003a6200013260201b60201c565b90508060000160089054906101000a900460ff161562000086576040517ff92ee8a900000000000000000000000000000000000000000000000000000000815260040160405180910390fd5b67ffffffffffffffff80168160000160009054906101000a900467ffffffffffffffff1667ffffffffffffffff16146200012f5767ffffffffffffffff8160000160006101000a81548167ffffffffffffffff021916908367ffffffffffffffff1602179055507fc7f505b2f371ae2175ee4913f4499e1f2633a7b5936321eed1cdaeb6115181d267ffffffffffffffff6040516200012691906200019e565b60405180910390a15b50565b600080620001456200014e60201b60201c565b90508091505090565b60007ff0c57e16840df040f15088dc2f81fe391c3923bec73e23a9662efc9c229c6a0060001b905090565b600067ffffffffffffffff82169050919050565b620001988162000179565b82525050565b6000602082019050620001b560008301846200018d565b92915050565b6120e580620001cb6000396000f3fe608060405234801561001057600080fd5b50600436106100625760003560e01c80632d2c5565146100675780634a0e8503146100855780634f97a250146100a15780638da5cb5b146100bd578063bf333f2c146100db578063c4d66de8146100f9575b600080fd5b61006f610115565b60405161007c9190611582565b60405180910390f35b61009f600480360381019061009a9190611613565b61011b565b005b6100bb60048036038101906100b691906116c9565b6109b5565b005b6100c5611313565b6040516100d29190611582565b60405180910390f35b6100e3611337565b6040516100f09190611765565b60405180910390f35b610113600480360381019061010e9190611780565b61133c565b005b61dead81565b60008054906101000a900473ffffffffffffffffffffffffffffffffffffffff1673ffffffffffffffffffffffffffffffffffffffff163373ffffffffffffffffffffffffffffffffffffffff16146101a9576040517f08c379a00000000000000000000000000000000000000000000000000000000081526004016101a09061180a565b60405180910390fd5b8773ffffffffffffffffffffffffffffffffffffffff166323b872dd3330876040518463ffffffff1660e01b81526004016101e69392919061182a565b6020604051808303816000875af1158015610205573d6000803e3d6000fd5b505050506040513d601f19601f820116820180604052508101906102299190611899565b506000612710600a8661023c91906118f5565b6102469190611966565b9050600081866102569190611997565b905060008211156102e3578973ffffffffffffffffffffffffffffffffffffffff1663a9059cbb61dead846040518363ffffffff1660e01b815260040161029e9291906119cb565b6020604051808303816000875af11580156102bd573d6000803e3d6000fd5b505050506040513d601f19601f820116820180604052508101906102e19190611899565b505b8973ffffffffffffffffffffffffffffffffffffffff1663095ea7b38a836040518363ffffffff1660e01b815260040161031e9291906119cb565b6020604051808303816000875af115801561033d573d6000803e3d6000fd5b505050506040513d601f19601f820116820180604052508101906103619190611899565b5060008973ffffffffffffffffffffffffffffffffffffffff1663a0712d68836040518263ffffffff1660e01b815260040161039d9190611765565b6020604051808303816000875af11580156103bc573d6000803e3d6000fd5b505050506040513d601f19601f820116820180604052508101906103e09190611a09565b14610420576040517f08c379a000000000000000000000000000000000000000000000000000000000815260040161041790611a82565b60405180910390fd5b6000600167ffffffffffffffff81111561043d5761043c611aa2565b5b60405190808252806020026020018201604052801561046b5781602001602082028036833780820191505090505b509050898160008151811061048357610482611ad1565b5b602002602001019073ffffffffffffffffffffffffffffffffffffffff16908173ffffffffffffffffffffffffffffffffffffffff16815250508373ffffffffffffffffffffffffffffffffffffffff1663c2998238826040518263ffffffff1660e01b81526004016104f69190611bbe565b6000604051808303816000875af1158015610515573d6000803e3d6000fd5b505050506040513d6000823e3d601f19601f8201168201806040525081019061053e9190611d0a565b5060008873ffffffffffffffffffffffffffffffffffffffff1663c5ebeaec886040518263ffffffff1660e01b815260040161057a9190611765565b6020604051808303816000875af1158015610599573d6000803e3d6000fd5b505050506040513d601f19601f820116820180604052508101906105bd9190611a09565b146105fd576040517f08c379a00000000000000000000000000000000000000000000000000000000081526004016105f490611d9f565b60405180910390fd5b8873ffffffffffffffffffffffffffffffffffffffff1663095ea7b386886040518363ffffffff1660e01b81526004016106389291906119cb565b6020604051808303816000875af1158015610657573d6000803e3d6000fd5b505050506040513d601f19601f8201168201806040525081019061067b9190611899565b506000600267ffffffffffffffff81111561069957610698611aa2565b5b6040519080825280602002602001820160405280156106c75781602001602082028036833780820191505090505b50905089816000815181106106df576106de611ad1565b5b602002602001019073ffffffffffffffffffffffffffffffffffffffff16908173ffffffffffffffffffffffffffffffffffffffff16815250508b8160018151811061072e5761072d611ad1565b5b602002602001019073ffffffffffffffffffffffffffffffffffffffff16908173ffffffffffffffffffffffffffffffffffffffff168152505060008673ffffffffffffffffffffffffffffffffffffffff166338ed17398960008530426040518663ffffffff1660e01b81526004016107ac959493929190611e04565b6000604051808303816000875af11580156107cb573d6000803e3d6000fd5b505050506040513d6000823e3d601f19601f820116820180604052508101906107f49190611d0a565b905060008160018151811061080c5761080b611ad1565b5b602002602001015190508d73ffffffffffffffffffffffffffffffffffffffff1663095ea7b38e836040518363ffffffff1660e01b81526004016108519291906119cb565b6020604051808303816000875af1158015610870573d6000803e3d6000fd5b505050506040513d601f19601f820116820180604052508101906108949190611899565b5060008d73ffffffffffffffffffffffffffffffffffffffff1663a0712d68836040518263ffffffff1660e01b81526004016108d09190611765565b6020604051808303816000875af11580156108ef573d6000803e3d6000fd5b505050506040513d601f19601f820116820180604052508101906109139190611a09565b14610953576040517f08c379a000000000000000000000000000000000000000000000000000000000815260040161094a90611eaa565b60405180910390fd5b3373ffffffffffffffffffffffffffffffffffffffff167fe54a3e6056cb5e2070c0194befb57ddef42f68e5457f3009ee9b2333427c22988f8c8c60405161099d93929190611eca565b60405180910390a25050505050505050505050505050565b60008054906101000a900473ffffffffffffffffffffffffffffffffffffffff1673ffffffffffffffffffffffffffffffffffffffff163373ffffffffffffffffffffffffffffffffffffffff1614610a43576040517f08c379a0000000000000000000000000000000000000000000000000000000008152600401610a3a9061180a565b60405180910390fd5b60008573ffffffffffffffffffffffffffffffffffffffff1663db006a75846040518263ffffffff1660e01b8152600401610a7e9190611765565b6020604051808303816000875af1158015610a9d573d6000803e3d6000fd5b505050506040513d601f19601f82011682018060405250810190610ac19190611a09565b14610b01576040517f08c379a0000000000000000000000000000000000000000000000000000000008152600401610af890611f4d565b60405180910390fd5b60008673ffffffffffffffffffffffffffffffffffffffff166370a08231306040518263ffffffff1660e01b8152600401610b3c9190611582565b602060405180830381865afa158015610b59573d6000803e3d6000fd5b505050506040513d601f19601f82011682018060405250810190610b7d9190611a09565b905060008473ffffffffffffffffffffffffffffffffffffffff166317bfdfbc306040518263ffffffff1660e01b8152600401610bba9190611582565b6020604051808303816000875af1158015610bd9573d6000803e3d6000fd5b505050506040513d601f19601f82011682018060405250810190610bfd9190611a09565b90508773ffffffffffffffffffffffffffffffffffffffff1663095ea7b384846040518363ffffffff1660e01b8152600401610c3a9291906119cb565b6020604051808303816000875af1158015610c59573d6000803e3d6000fd5b505050506040513d601f19601f82011682018060405250810190610c7d9190611899565b506000600267ffffffffffffffff811115610c9b57610c9a611aa2565b5b604051908082528060200260200182016040528015610cc95781602001602082028036833780820191505090505b5090508881600081518110610ce157610ce0611ad1565b5b602002602001019073ffffffffffffffffffffffffffffffffffffffff16908173ffffffffffffffffffffffffffffffffffffffff16815250508681600181518110610d3057610d2f611ad1565b5b602002602001019073ffffffffffffffffffffffffffffffffffffffff16908173ffffffffffffffffffffffffffffffffffffffff168152505060008473ffffffffffffffffffffffffffffffffffffffff166338ed17398560008530426040518663ffffffff1660e01b8152600401610dae959493929190611e04565b6000604051808303816000875af1158015610dcd573d6000803e3d6000fd5b505050506040513d6000823e3d601f19601f82011682018060405250810190610df69190611d0a565b9050600081600181518110610e0e57610e0d611ad1565b5b6020026020010151905083811115610e24578390505b8873ffffffffffffffffffffffffffffffffffffffff1663095ea7b389836040518363ffffffff1660e01b8152600401610e5f9291906119cb565b6020604051808303816000875af1158015610e7e573d6000803e3d6000fd5b505050506040513d601f19601f82011682018060405250810190610ea29190611899565b5060008873ffffffffffffffffffffffffffffffffffffffff16630e752702836040518263ffffffff1660e01b8152600401610ede9190611765565b6020604051808303816000875af1158015610efd573d6000803e3d6000fd5b505050506040513d601f19601f82011682018060405250810190610f219190611a09565b14610f61576040517f08c379a0000000000000000000000000000000000000000000000000000000008152600401610f5890611fb9565b60405180910390fd5b60008a73ffffffffffffffffffffffffffffffffffffffff166370a08231306040518263ffffffff1660e01b8152600401610f9c9190611582565b602060405180830381865afa158015610fb9573d6000803e3d6000fd5b505050506040513d601f19601f82011682018060405250810190610fdd9190611a09565b905060008111156110a75760008b73ffffffffffffffffffffffffffffffffffffffff1663db006a75836040518263ffffffff1660e01b81526004016110239190611765565b6020604051808303816000875af1158015611042573d6000803e3d6000fd5b505050506040513d601f19601f820116820180604052508101906110669190611a09565b146110a6576040517f08c379a000000000000000000000000000000000000000000000000000000000815260040161109d90612025565b60405180910390fd5b5b60008c73ffffffffffffffffffffffffffffffffffffffff166370a08231306040518263ffffffff1660e01b81526004016110e29190611582565b602060405180830381865afa1580156110ff573d6000803e3d6000fd5b505050506040513d601f19601f820116820180604052508101906111239190611a09565b905060008111156111ae578c73ffffffffffffffffffffffffffffffffffffffff1663a9059cbb33836040518363ffffffff1660e01b81526004016111699291906119cb565b6020604051808303816000875af1158015611188573d6000803e3d6000fd5b505050506040513d601f19601f820116820180604052508101906111ac9190611899565b505b60008b73ffffffffffffffffffffffffffffffffffffffff166370a08231306040518263ffffffff1660e01b81526004016111e99190611582565b602060405180830381865afa158015611206573d6000803e3d6000fd5b505050506040513d601f19601f8201168201806040525081019061122a9190611a09565b905060008111156112b5578b73ffffffffffffffffffffffffffffffffffffffff1663a9059cbb33836040518363ffffffff1660e01b81526004016112709291906119cb565b6020604051808303816000875af115801561128f573d6000803e3d6000fd5b505050506040513d601f19601f820116820180604052508101906112b39190611899565b505b3373ffffffffffffffffffffffffffffffffffffffff167f55aac3b536b35cd9d2594b316ded327caf6abd87fa069425b14ec4d0dfd13554856040516112fb9190611765565b60405180910390a25050505050505050505050505050565b60008054906101000a900473ffffffffffffffffffffffffffffffffffffffff1681565b600a81565b6000611346611502565b905060008160000160089054906101000a900460ff1615905060008260000160009054906101000a900467ffffffffffffffff1690506000808267ffffffffffffffff161480156113945750825b9050600060018367ffffffffffffffff161480156113c9575060003073ffffffffffffffffffffffffffffffffffffffff163b145b9050811580156113d7575080155b1561140e576040517ff92ee8a900000000000000000000000000000000000000000000000000000000815260040160405180910390fd5b60018560000160006101000a81548167ffffffffffffffff021916908367ffffffffffffffff160217905550831561145e5760018560000160086101000a81548160ff0219169083151502179055505b856000806101000a81548173ffffffffffffffffffffffffffffffffffffffff021916908373ffffffffffffffffffffffffffffffffffffffff16021790555083156114fa5760008560000160086101000a81548160ff0219169083151502179055507fc7f505b2f371ae2175ee4913f4499e1f2633a7b5936321eed1cdaeb6115181d260016040516114f19190612094565b60405180910390a15b505050505050565b60008061150d611516565b90508091505090565b60007ff0c57e16840df040f15088dc2f81fe391c3923bec73e23a9662efc9c229c6a0060001b905090565b600073ffffffffffffffffffffffffffffffffffffffff82169050919050565b600061156c82611541565b9050919050565b61157c81611561565b82525050565b60006020820190506115976000830184611573565b92915050565b6000604051905090565b600080fd5b600080fd5b6115ba81611561565b81146115c557600080fd5b50565b6000813590506115d7816115b1565b92915050565b6000819050919050565b6115f0816115dd565b81146115fb57600080fd5b50565b60008135905061160d816115e7565b92915050565b600080600080600080600080610100898b031215611634576116336115a7565b5b60006116428b828c016115c8565b98505060206116538b828c016115c8565b97505060406116648b828c016115c8565b96505060606116758b828c016115c8565b95505060806116868b828c016115fe565b94505060a06116978b828c016115fe565b93505060c06116a88b828c016115c8565b92505060e06116b98b828c016115c8565b9150509295985092959890939650565b60008060008060008060c087890312156116e6576116e56115a7565b5b60006116f489828a016115c8565b965050602061170589828a016115c8565b955050604061171689828a016115c8565b945050606061172789828a016115c8565b935050608061173889828a016115fe565b92505060a061174989828a016115c8565b9150509295509295509295565b61175f816115dd565b82525050565b600060208201905061177a6000830184611756565b92915050565b600060208284031215611796576117956115a7565b5b60006117a4848285016115c8565b91505092915050565b600082825260208201905092915050565b7f4e6f74206f776e65720000000000000000000000000000000000000000000000600082015250565b60006117f46009836117ad565b91506117ff826117be565b602082019050919050565b60006020820190508181036000830152611823816117e7565b9050919050565b600060608201905061183f6000830186611573565b61184c6020830185611573565b6118596040830184611756565b949350505050565b60008115159050919050565b61187681611861565b811461188157600080fd5b50565b6000815190506118938161186d565b92915050565b6000602082840312156118af576118ae6115a7565b5b60006118bd84828501611884565b91505092915050565b7f4e487b7100000000000000000000000000000000000000000000000000000000600052601160045260246000fd5b6000611900826115dd565b915061190b836115dd565b9250828202611919816115dd565b915082820484148315176119305761192f6118c6565b5b5092915050565b7f4e487b7100000000000000000000000000000000000000000000000000000000600052601260045260246000fd5b6000611971826115dd565b915061197c836115dd565b92508261198c5761198b611937565b5b828204905092915050565b60006119a2826115dd565b91506119ad836115dd565b92508282039050818111156119c5576119c46118c6565b5b92915050565b60006040820190506119e06000830185611573565b6119ed6020830184611756565b9392505050565b600081519050611a03816115e7565b92915050565b600060208284031215611a1f57611a1e6115a7565b5b6000611a2d848285016119f4565b91505092915050565b7f4d696e74206661696c6564000000000000000000000000000000000000000000600082015250565b6000611a6c600b836117ad565b9150611a7782611a36565b602082019050919050565b60006020820190508181036000830152611a9b81611a5f565b9050919050565b7f4e487b7100000000000000000000000000000000000000000000000000000000600052604160045260246000fd5b7f4e487b7100000000000000000000000000000000000000000000000000000000600052603260045260246000fd5b600081519050919050565b600082825260208201905092915050565b6000819050602082019050919050565b611b3581611561565b82525050565b6000611b478383611b2c565b60208301905092915050565b6000602082019050919050565b6000611b6b82611b00565b611b758185611b0b565b9350611b8083611b1c565b8060005b83811015611bb1578151611b988882611b3b565b9750611ba383611b53565b925050600181019050611b84565b5085935050505092915050565b60006020820190508181036000830152611bd88184611b60565b905092915050565b600080fd5b6000601f19601f8301169050919050565b611bff82611be5565b810181811067ffffffffffffffff82111715611c1e57611c1d611aa2565b5b80604052505050565b6000611c3161159d565b9050611c3d8282611bf6565b919050565b600067ffffffffffffffff821115611c5d57611c5c611aa2565b5b602082029050602081019050919050565b600080fd5b6000611c86611c8184611c42565b611c27565b90508083825260208201905060208402830185811115611ca957611ca8611c6e565b5b835b81811015611cd25780611cbe88826119f4565b845260208401935050602081019050611cab565b5050509392505050565b600082601f830112611cf157611cf0611be0565b5b8151611d01848260208601611c73565b91505092915050565b600060208284031215611d2057611d1f6115a7565b5b600082015167ffffffffffffffff811115611d3e57611d3d6115ac565b5b611d4a84828501611cdc565b91505092915050565b7f426f72726f77206661696c656400000000000000000000000000000000000000600082015250565b6000611d89600d836117ad565b9150611d9482611d53565b602082019050919050565b60006020820190508181036000830152611db881611d7c565b9050919050565b6000819050919050565b6000819050919050565b6000611dee611de9611de484611dbf565b611dc9565b6115dd565b9050919050565b611dfe81611dd3565b82525050565b600060a082019050611e196000830188611756565b611e266020830187611df5565b8181036040830152611e388186611b60565b9050611e476060830185611573565b611e546080830184611756565b9695505050505050565b7f4d696e74206c6f6f70206661696c656400000000000000000000000000000000600082015250565b6000611e946010836117ad565b9150611e9f82611e5e565b602082019050919050565b60006020820190508181036000830152611ec381611e87565b9050919050565b6000606082019050611edf6000830186611573565b611eec6020830185611756565b611ef96040830184611756565b949350505050565b7f52656465656d206661696c656400000000000000000000000000000000000000600082015250565b6000611f37600d836117ad565b9150611f4282611f01565b602082019050919050565b60006020820190508181036000830152611f6681611f2a565b9050919050565b7f5265706179206661696c65640000000000000000000000000000000000000000600082015250565b6000611fa3600c836117ad565b9150611fae82611f6d565b602082019050919050565b60006020820190508181036000830152611fd281611f96565b9050919050565b7f46696e616c2072656465656d206661696c656400000000000000000000000000600082015250565b600061200f6013836117ad565b915061201a82611fd9565b602082019050919050565b6000602082019050818103600083015261203e81612002565b9050919050565b6000819050919050565b600067ffffffffffffffff82169050919050565b600061207e61207961207484612045565b611dc9565b61204f565b9050919050565b61208e81612063565b82525050565b60006020820190506120a96000830184612085565b9291505056fea2646970667358221220eb665517796d743f36f063730d33c238a579960751465076f2a2d9c1ae3152b164736f6c63430008140033",
  "linkReferences": {},
  "deployedLinkReferences": {}
}