{
  "_format": "hh-sol-artifact-1",
  "contractName": "OpButlerFactory",
  "sourceName": "contracts/OpButlerFactory.sol",
  "abi": [
    {
      "inputs": [
        {
          "internalType": "address",
          "name": "_implementation",
          "type": "address"
        }
      ],
      "stateMutability": "nonpayable",
      "type": "constructor"
    },
    {
      "inputs": [],
      "name": "FailedDeployment",
      "type": "error"
    },
    {
      "inputs": [
        {
          "internalType": "uint256",
          "name": "balance",
          "type": "uint256"
        },
        {
          "internalType": "uint256",
          "name": "needed",
          "type": "uint256"
        }
      ],
      "name": "InsufficientBalance",
      "type": "error"
    },
    {
      "anonymous": false,
      "inputs": [
        {
          "indexed": true,
          "internalType": "address",
          "name": "user",
          "type": "address"
        },
        {
          "indexed": false,
          "internalType": "address",
          "name": "wallet",
          "type": "address"
        }
      ],
      "name": "WalletCreated",
      "type": "event"
    },
    {
      "inputs": [
        {
          "internalType": "uint256",
          "name": "",
          "type": "uint256"
        }
      ],
      "name": "allWallets",
      "outputs": [
        {
          "internalType": "address",
          "name": "",
          "type": "address"
        }
      ],
      "stateMutability": "view",
      "type": "function"
    },
    {
      "inputs": [],
      "name": "createWallet",
      "outputs": [
        {
          "internalType": "address",
          "name": "",
          "type": "address"
        }
      ],
      "stateMutability": "nonpayable",
      "type": "function"
    },
    {
      "inputs": [
        {
          "internalType": "address",
          "name": "user",
          "type": "address"
        }
      ],
      "name": "getWallet",
      "outputs": [
        {
          "internalType": "address",
          "name": "",
          "type": "address"
        }
      ],
      "stateMutability": "view",
      "type": "function"
    },
    {
      "inputs": [],
      "name": "implementation",
      "outputs": [
        {
          "internalType": "address",
          "name": "",
          "type": "address"
        }
      ],
      "stateMutability": "view",
      "type": "function"
    },
    {
      "inputs": [
        {
          "internalType": "address",
          "name": "",
          "type": "address"
        }
      ],
      "name": "wallets",
      "outputs": [
        {
          "internalType": "address",
          "name": "",
          "type": "address"
        }
      ],
      "stateMutability": "view",
      "type": "function"
    }
  ],
  "bytecode": "0x60a060405234801561001057600080fd5b506040516108f33803806108f3833981810160405281019061003291906100cf565b8073ffffffffffffffffffffffffffffffffffffffff1660808173ffffffffffffffffffffffffffffffffffffffff1681525050506100fc565b600080fd5b600073ffffffffffffffffffffffffffffffffffffffff82169050919050565b600061009c82610071565b9050919050565b6100ac81610091565b81146100b757600080fd5b50565b6000815190506100c9816100a3565b92915050565b6000602082840312156100e5576100e461006c565b5b60006100f3848285016100ba565b91505092915050565b6080516107d561011e60003960008181610265015261042d01526107d56000f3fe608060405234801561001057600080fd5b50600436106100575760003560e01c806304d0a6471461005c57806311ebbf241461008c5780635c60da1b146100aa57806389b08f11146100c85780638cf8350f146100f8575b600080fd5b61007660048036038101906100719190610630565b610128565b604051610083919061066c565b60405180910390f35b610094610190565b6040516100a1919061066c565b60405180910390f35b6100b261042b565b6040516100bf919061066c565b60405180910390f35b6100e260048036038101906100dd9190610630565b61044f565b6040516100ef919061066c565b60405180910390f35b610112600480360381019061010d91906106bd565b610482565b60405161011f919061066c565b60405180910390f35b60008060008373ffffffffffffffffffffffffffffffffffffffff1673ffffffffffffffffffffffffffffffffffffffff16815260200190815260200160002060009054906101000a900473ffffffffffffffffffffffffffffffffffffffff169050919050565b60008073ffffffffffffffffffffffffffffffffffffffff166000803373ffffffffffffffffffffffffffffffffffffffff1673ffffffffffffffffffffffffffffffffffffffff16815260200190815260200160002060009054906101000a900473ffffffffffffffffffffffffffffffffffffffff1673ffffffffffffffffffffffffffffffffffffffff161461025e576040517f08c379a000000000000000000000000000000000000000000000000000000000815260040161025590610747565b60405180910390fd5b60006102897f00000000000000000000000000000000000000000000000000000000000000006104c1565b90508073ffffffffffffffffffffffffffffffffffffffff1663c4d66de8336040518263ffffffff1660e01b81526004016102c4919061066c565b600060405180830381600087803b1580156102de57600080fd5b505af11580156102f2573d6000803e3d6000fd5b50505050806000803373ffffffffffffffffffffffffffffffffffffffff1673ffffffffffffffffffffffffffffffffffffffff16815260200190815260200160002060006101000a81548173ffffffffffffffffffffffffffffffffffffffff021916908373ffffffffffffffffffffffffffffffffffffffff1602179055506001819080600181540180825580915050600190039060005260206000200160009091909190916101000a81548173ffffffffffffffffffffffffffffffffffffffff021916908373ffffffffffffffffffffffffffffffffffffffff1602179055503373ffffffffffffffffffffffffffffffffffffffff167f5b03bfed1c14a02bdeceb5fa582eb1a5765fc0bc64ca0e6af4c20afc9487f0818260405161041c919061066c565b60405180910390a28091505090565b7f000000000000000000000000000000000000000000000000000000000000000081565b60006020528060005260406000206000915054906101000a900473ffffffffffffffffffffffffffffffffffffffff1681565b6001818154811061049257600080fd5b906000526020600020016000915054906101000a900473ffffffffffffffffffffffffffffffffffffffff1681565b60006104ce8260006104d5565b9050919050565b60008147101561051e5747826040517fcf479181000000000000000000000000000000000000000000000000000000008152600401610515929190610776565b60405180910390fd5b763d602d80600a3d3981f3363d3d373d3d3d363d730000008360601b60e81c176000526e5af43d82803e903d91602b57fd5bf38360781b176020526037600983f09050600073ffffffffffffffffffffffffffffffffffffffff168173ffffffffffffffffffffffffffffffffffffffff16036105c7576040517fb06ebf3d00000000000000000000000000000000000000000000000000000000815260040160405180910390fd5b92915050565b600080fd5b600073ffffffffffffffffffffffffffffffffffffffff82169050919050565b60006105fd826105d2565b9050919050565b61060d816105f2565b811461061857600080fd5b50565b60008135905061062a81610604565b92915050565b600060208284031215610646576106456105cd565b5b60006106548482850161061b565b91505092915050565b610666816105f2565b82525050565b6000602082019050610681600083018461065d565b92915050565b6000819050919050565b61069a81610687565b81146106a557600080fd5b50565b6000813590506106b781610691565b92915050565b6000602082840312156106d3576106d26105cd565b5b60006106e1848285016106a8565b91505092915050565b600082825260208201905092915050565b7f57616c6c657420616c7265616479206578697374730000000000000000000000600082015250565b60006107316015836106ea565b915061073c826106fb565b602082019050919050565b6000602082019050818103600083015261076081610724565b9050919050565b61077081610687565b82525050565b600060408201905061078b6000830185610767565b6107986020830184610767565b939250505056fea26469706673582212205cbd26c43d762268f2c897a07a2ac51b635b8f1bb5dee812646df2a3eee4a33f64736f6c63430008140033",
  "linkReferences": {},
  "deployedLinkReferences": {}
}